{
  "contractName": "EHR",
  "abi": [
    {
      "inputs": [
        {
          "internalType": "string",
          "name": "ipfsFileHash",
          "type": "string"
        },
        {
          "internalType": "string",
          "name": "medicalRecordId",
          "type": "string"
        }
      ],
      "name": "addRecord",
      "outputs": [],
      "stateMutability": "nonpayable",
      "type": "function"
    },
    {
      "inputs": [
        {
          "internalType": "string",
          "name": "medicalRecordId",
          "type": "string"
        }
      ],
      "name": "getRecordByMedicalRecordId",
      "outputs": [
        {
          "components": [
            {
              "internalType": "string",
              "name": "ipfsFileHash",
              "type": "string"
            },
            {
              "internalType": "uint256",
              "name": "timestamp",
              "type": "uint256"
            },
            {
              "internalType": "string",
              "name": "medicalRecordId",
              "type": "string"
            }
          ],
          "internalType": "struct EHR.Record",
          "name": "",
          "type": "tuple"
        }
      ],
      "stateMutability": "view",
      "type": "function",
      "constant": true
    }
  ],
  "bytecode": "0x608060405234801561001057600080fd5b50610a09806100206000396000f3fe608060405234801561001057600080fd5b50600436106100365760003560e01c8063996805d61461003b578063c95962481461006b575b600080fd5b61005560048036038101906100509190610453565b610087565b604051610062919061058b565b60405180910390f35b610085600480360381019061008091906105ad565b61025c565b005b61008f6102d8565b600080836040516100a09190610661565b908152602001604051809103902060000180546100bc906106a7565b9050036100fe576040517f08c379a00000000000000000000000000000000000000000000000000000000081526004016100f590610735565b60405180910390fd5b60008260405161010e9190610661565b9081526020016040518091039020604051806060016040529081600082018054610137906106a7565b80601f0160208091040260200160405190810160405280929190818152602001828054610163906106a7565b80156101b05780601f10610185576101008083540402835291602001916101b0565b820191906000526020600020905b81548152906001019060200180831161019357829003601f168201915b50505050508152602001600182015481526020016002820180546101d3906106a7565b80601f01602080910402602001604051908101604052809291908181526020018280546101ff906106a7565b801561024c5780601f106102215761010080835404028352916020019161024c565b820191906000526020600020905b81548152906001019060200180831161022f57829003601f168201915b5050505050815250509050919050565b600060405180606001604052808481526020014281526020018381525090508060008360405161028c9190610661565b908152602001604051809103902060008201518160000190816102af9190610901565b506020820151816001015560408201518160020190816102cf9190610901565b50905050505050565b60405180606001604052806060815260200160008152602001606081525090565b6000604051905090565b600080fd5b600080fd5b600080fd5b600080fd5b6000601f19601f8301169050919050565b7f4e487b7100000000000000000000000000000000000000000000000000000000600052604160045260246000fd5b61036082610317565b810181811067ffffffffffffffff8211171561037f5761037e610328565b5b80604052505050565b60006103926102f9565b905061039e8282610357565b919050565b600067ffffffffffffffff8211156103be576103bd610328565b5b6103c782610317565b9050602081019050919050565b82818337600083830152505050565b60006103f66103f1846103a3565b610388565b90508281526020810184848401111561041257610411610312565b5b61041d8482856103d4565b509392505050565b600082601f83011261043a5761043961030d565b5b813561044a8482602086016103e3565b91505092915050565b60006020828403121561046957610468610303565b5b600082013567ffffffffffffffff81111561048757610486610308565b5b61049384828501610425565b91505092915050565b600081519050919050565b600082825260208201905092915050565b60005b838110156104d65780820151818401526020810190506104bb565b60008484015250505050565b60006104ed8261049c565b6104f781856104a7565b93506105078185602086016104b8565b61051081610317565b840191505092915050565b6000819050919050565b61052e8161051b565b82525050565b6000606083016000830151848203600086015261055182826104e2565b91505060208301516105666020860182610525565b506040830151848203604086015261057e82826104e2565b9150508091505092915050565b600060208201905081810360008301526105a58184610534565b905092915050565b600080604083850312156105c4576105c3610303565b5b600083013567ffffffffffffffff8111156105e2576105e1610308565b5b6105ee85828601610425565b925050602083013567ffffffffffffffff81111561060f5761060e610308565b5b61061b85828601610425565b9150509250929050565b600081905092915050565b600061063b8261049c565b6106458185610625565b93506106558185602086016104b8565b80840191505092915050565b600061066d8284610630565b915081905092915050565b7f4e487b7100000000000000000000000000000000000000000000000000000000600052602260045260246000fd5b600060028204905060018216806106bf57607f821691505b6020821081036106d2576106d1610678565b5b50919050565b600082825260208201905092915050565b7f5265636f7264206e6f7420666f756e6400000000000000000000000000000000600082015250565b600061071f6010836106d8565b915061072a826106e9565b602082019050919050565b6000602082019050818103600083015261074e81610712565b9050919050565b60008190508160005260206000209050919050565b60006020601f8301049050919050565b600082821b905092915050565b6000600883026107b77fffffffffffffffffffffffffffffffffffffffffffffffffffffffffffffffff8261077a565b6107c1868361077a565b95508019841693508086168417925050509392505050565b6000819050919050565b60006107fe6107f96107f48461051b565b6107d9565b61051b565b9050919050565b6000819050919050565b610818836107e3565b61082c61082482610805565b848454610787565b825550505050565b600090565b610841610834565b61084c81848461080f565b505050565b5b8181101561087057610865600082610839565b600181019050610852565b5050565b601f8211156108b55761088681610755565b61088f8461076a565b8101602085101561089e578190505b6108b26108aa8561076a565b830182610851565b50505b505050565b600082821c905092915050565b60006108d8600019846008026108ba565b1980831691505092915050565b60006108f183836108c7565b9150826002028217905092915050565b61090a8261049c565b67ffffffffffffffff81111561092357610922610328565b5b61092d82546106a7565b610938828285610874565b600060209050601f83116001811461096b5760008415610959578287015190505b61096385826108e5565b8655506109cb565b601f19841661097986610755565b60005b828110156109a15784890151825560018201915060208501945060208101905061097c565b868310156109be57848901516109ba601f8916826108c7565b8355505b6001600288020188555050505b50505050505056fea264697066735822122067925597e8ba06cb26b7cc2ace84d4baa6064b9b6aa52f572d4b231956b7d04d64736f6c63430008130033",
  "immutableReferences": {},
  "source": "pragma solidity ^0.8.0;\r\n\r\ncontract EHR {\r\n    struct Record {\r\n        string ipfsFileHash; // Store the IPFS file hash\r\n        uint256 timestamp;\r\n        string medicalRecordId; // Store the medical record ID\r\n    }\r\n\r\n    mapping(string => Record) private recordByMedicalRecordId; // Mapping to retrieve a record by medicalRecordId\r\n\r\n    // Function to add a record using IPFS file hash and medical record ID\r\n    function addRecord(string memory ipfsFileHash, string memory medicalRecordId) public {\r\n        Record memory newRecord = Record(ipfsFileHash, block.timestamp, medicalRecordId);\r\n\r\n        recordByMedicalRecordId[medicalRecordId] = newRecord; // Store the record by medicalRecordId\r\n    }\r\n\r\n    // Function to get a record by medicalRecordId\r\n    function getRecordByMedicalRecordId(string memory medicalRecordId) public view returns (Record memory) {\r\n        require(bytes(recordByMedicalRecordId[medicalRecordId].ipfsFileHash).length != 0, \"Record not found\");\r\n        return recordByMedicalRecordId[medicalRecordId];\r\n    }\r\n}",
  "sourcePath": "D:\\Projects\\FYP\\ehr-backend\\contracts\\EHR.sol",
  "compiler": {
    "name": "solc",
    "version": "0.8.19+commit.7dd6d404.Emscripten.clang"
  },
  "schemaVersion": "3.4.16",
  "updatedAt": "2024-08-30T21:59:26.199Z",
  "networkType": "ethereum",
  "devdoc": {
    "kind": "dev",
    "methods": {},
    "version": 1
  },
  "userdoc": {
    "kind": "user",
    "methods": {},
    "version": 1
  }
}